{
  "contractName": "TicTacToe",
  "abi": [
    {
      "constant": true,
      "inputs": [],
      "name": "owner",
      "outputs": [
        {
          "name": "",
          "type": "address"
        }
      ],
      "payable": false,
      "stateMutability": "view",
      "type": "function"
    },
    {
      "inputs": [],
      "payable": false,
      "stateMutability": "nonpayable",
      "type": "constructor"
    },
    {
      "constant": false,
      "inputs": [
        {
          "name": "stake",
          "type": "uint256"
        },
        {
          "name": "randomPlayer",
          "type": "bool"
        }
      ],
      "name": "createGame",
      "outputs": [
        {
          "name": "",
          "type": "uint256"
        }
      ],
      "payable": true,
      "stateMutability": "payable",
      "type": "function"
    },
    {
      "constant": true,
      "inputs": [
        {
          "name": "gameId",
          "type": "uint256"
        }
      ],
      "name": "getBoard",
      "outputs": [
        {
          "name": "",
          "type": "uint8[3][3]"
        }
      ],
      "payable": false,
      "stateMutability": "view",
      "type": "function"
    },
    {
      "constant": false,
      "inputs": [
        {
          "name": "gameId",
          "type": "uint256"
        },
        {
          "name": "stake",
          "type": "uint256"
        }
      ],
      "name": "joinGame",
      "outputs": [],
      "payable": true,
      "stateMutability": "payable",
      "type": "function"
    },
    {
      "constant": false,
      "inputs": [
        {
          "name": "gameId",
          "type": "uint256"
        },
        {
          "name": "i",
          "type": "uint256"
        },
        {
          "name": "j",
          "type": "uint256"
        }
      ],
      "name": "makeMove",
      "outputs": [],
      "payable": false,
      "stateMutability": "nonpayable",
      "type": "function"
    }
  ],
  "bytecode": "0x608060405234801561001057600080fd5b5033600160006101000a81548173ffffffffffffffffffffffffffffffffffffffff021916908373ffffffffffffffffffffffffffffffffffffffff160217905550611c6d806100616000396000f3fe60806040526004361061004a5760003560e01c806345e09e541461004f5780636bfca566146100e95780638da5cb5b14610137578063b60b9fcb1461018e578063cfc2f5ff146101c6575b600080fd5b34801561005b57600080fd5b506100886004803603602081101561007257600080fd5b8101908080359060200190929190505050610215565b604051808260036000925b818410156100d95782846020020151600360200280838360005b838110156100c85780820151818401526020810190506100ad565b505050509050019260010192610093565b9250505091505060405180910390f35b610121600480360360408110156100ff57600080fd5b81019080803590602001909291908035151590602001909291905050506102d9565b6040518082815260200191505060405180910390f35b34801561014357600080fd5b5061014c610597565b604051808273ffffffffffffffffffffffffffffffffffffffff1673ffffffffffffffffffffffffffffffffffffffff16815260200191505060405180910390f35b6101c4600480360360408110156101a457600080fd5b8101908080359060200190929190803590602001909291905050506105bd565b005b3480156101d257600080fd5b50610213600480360360608110156101e957600080fd5b81019080803590602001909291908035906020019092919080359060200190929190505050610673565b005b61021d61197c565b60026000838152602001908152602001600020600201600380602002604051908101604052809291906000905b828210156102ce578382016003806020026040519081016040528092919082600380156102ba576020028201916000905b82829054906101000a900460ff16600281111561029457fe5b8152602001906001019060208260000104928301926001038202915080841161027b5790505b50505050508152602001906001019061024a565b505050509050919050565b60003483146102e757600080fd5b6102ef6119aa565b600080815480929190600101919050555033816000019073ffffffffffffffffffffffffffffffffffffffff16908173ffffffffffffffffffffffffffffffffffffffff16815250506000600190505b600281116103725760008260800151828151811061035957fe5b602002602001018181525050808060010191505061033f565b5060008090505b60038110156103ef5760008090505b60038110156103e1576000836040015183600381106103a357fe5b602002015182600381106103b357fe5b602002019060028111156103c357fe5b908160028111156103d057fe5b815250508080600101915050610388565b508080600101915050610379565b50600181606001818152505060008160a001818152505060018160e0019015159081151581525050838160c0018181525050821561043e57600081610100019015159081151581525050610451565b6001816101000190151590811515815250505b80600260008054815260200190815260200160002060008201518160000160006101000a81548173ffffffffffffffffffffffffffffffffffffffff021916908373ffffffffffffffffffffffffffffffffffffffff16021790555060208201518160010160006101000a81548173ffffffffffffffffffffffffffffffffffffffff021916908373ffffffffffffffffffffffffffffffffffffffff16021790555060408201518160020190600361050b929190611a2c565b50606082015181600501556080820151816006019080519060200190610532929190611a7a565b5060a0820151816007015560c0820151816008015560e08201518160090160006101000a81548160ff0219169083151502179055506101008201518160090160016101000a81548160ff02191690831515021790555090505060005491505092915050565b600160009054906101000a900473ffffffffffffffffffffffffffffffffffffffff1681565b6002600083815260200190815260200160002060090160009054906101000a900460ff166105ea57600080fd5b3481146105f657600080fd5b806002600084815260200190815260200160002060080160008282540192505081905550336002600084815260200190815260200160002060010160006101000a81548173ffffffffffffffffffffffffffffffffffffffff021916908373ffffffffffffffffffffffffffffffffffffffff1602179055505050565b6002600084815260200190815260200160002060090160009054906101000a900460ff166106a057600080fd5b6106aa3384610b48565b61071c576040517f08c379a000000000000000000000000000000000000000000000000000000000815260040180806020018281038252600d8152602001807f4e6f7420796f7572206d6f76650000000000000000000000000000000000000081525060200191505060405180910390fd5b6002600084815260200190815260200160002060000160009054906101000a900473ffffffffffffffffffffffffffffffffffffffff1673ffffffffffffffffffffffffffffffffffffffff163373ffffffffffffffffffffffffffffffffffffffff1614156107e25760016002600085815260200190815260200160002060020183600381106107a957fe5b0182600381106107b557fe5b602091828204019190066101000a81548160ff021916908360028111156107d857fe5b0217905550610839565b6002806000858152602001908152602001600020600201836003811061080457fe5b01826003811061081057fe5b602091828204019190066101000a81548160ff0219169083600281111561083357fe5b02179055505b60008061084585610cab565b80925081935050506002600086815260200190815260200160002060000160009054906101000a900473ffffffffffffffffffffffffffffffffffffffff1673ffffffffffffffffffffffffffffffffffffffff168273ffffffffffffffffffffffffffffffffffffffff161480156108c2575060011515811515145b1561091357600260008681526020019081526020016000206006016001815481106108e957fe5b906000526020600020016000815480929190600101919050555061090c85611499565b5050610b43565b6002600086815260200190815260200160002060010160009054906101000a900473ffffffffffffffffffffffffffffffffffffffff1673ffffffffffffffffffffffffffffffffffffffff168273ffffffffffffffffffffffffffffffffffffffff16148015610988575060011515811515145b156109d957600260008681526020019081526020016000206006016002815481106109af57fe5b90600052602060002001600081548092919060010191905055506109d285611499565b5050610b43565b600073ffffffffffffffffffffffffffffffffffffffff168273ffffffffffffffffffffffffffffffffffffffff16148015610a19575060011515811515145b15610a2e57610a2785611499565b5050610b43565b6002600086815260200190815260200160002060090160019054906101000a900460ff1615610b405760008060008090505b6003811015610b2b5760008090505b6003811015610b1d5760006002811115610a8557fe5b600260008b81526020019081526020016000206002018960038110610aa657fe5b018860038110610ab257fe5b602091828204019190069054906101000a900460ff166002811115610ad357fe5b1415610b105787935086925060016002610aeb611941565b81610af257fe5b061415610b0f57610b04898989610673565b505050505050610b43565b5b8080600101915050610a6f565b508080600101915050610a60565b50610b37878383610673565b50505050610b43565b50505b505050565b60006002600083815260200190815260200160002060090160009054906101000a900460ff16610b7757600080fd5b6002600083815260200190815260200160002060000160009054906101000a900473ffffffffffffffffffffffffffffffffffffffff1673ffffffffffffffffffffffffffffffffffffffff168373ffffffffffffffffffffffffffffffffffffffff16148015610bfe575060016002600084815260200190815260200160002060050154145b15610c0c5760019050610ca5565b6002600083815260200190815260200160002060010160009054906101000a900473ffffffffffffffffffffffffffffffffffffffff1673ffffffffffffffffffffffffffffffffffffffff168373ffffffffffffffffffffffffffffffffffffffff16148015610c925750600280600084815260200190815260200160002060050154145b15610ca05760019050610ca5565b600090505b92915050565b6000806002600084815260200190815260200160002060090160009054906101000a900460ff16610cdb57600080fd5b610ce36119aa565b60026000858152602001908152602001600020604051806101200160405290816000820160009054906101000a900473ffffffffffffffffffffffffffffffffffffffff1673ffffffffffffffffffffffffffffffffffffffff1673ffffffffffffffffffffffffffffffffffffffff1681526020016001820160009054906101000a900473ffffffffffffffffffffffffffffffffffffffff1673ffffffffffffffffffffffffffffffffffffffff1673ffffffffffffffffffffffffffffffffffffffff16815260200160028201600380602002604051908101604052809291906000905b82821015610e4e57838201600380602002604051908101604052809291908260038015610e3a576020028201916000905b82829054906101000a900460ff166002811115610e1457fe5b81526020019060010190602082600001049283019260010382029150808411610dfb5790505b505050505081526020019060010190610dca565b5050505081526020016005820154815260200160068201805480602002602001604051908101604052809291908181526020018280548015610eaf57602002820191906000526020600020905b815481526020019060010190808311610e9b575b5050505050815260200160078201548152602001600882015481526020016009820160009054906101000a900460ff161515151581526020016009820160019054906101000a900460ff161515151581525050905060008090505b600381101561117d5781604001518160038110610f2357fe5b6020020151600160038110610f3457fe5b60200201516002811115610f4457fe5b82604001518260038110610f5457fe5b6020020151600060038110610f6557fe5b60200201516002811115610f7557fe5b148015610fe1575081604001518160038110610f8d57fe5b6020020151600260038110610f9e57fe5b60200201516002811115610fae57fe5b82604001518260038110610fbe57fe5b6020020151600060038110610fcf57fe5b60200201516002811115610fdf57fe5b145b8015611028575060016002811115610ff557fe5b8260400151826003811061100557fe5b602002015160006003811061101657fe5b6020020151600281111561102657fe5b145b156110425781600001516001819150935093505050611494565b8160400151816003811061105257fe5b602002015160016003811061106357fe5b6020020151600281111561107357fe5b8260400151826003811061108357fe5b602002015160006003811061109457fe5b602002015160028111156110a457fe5b1480156111105750816040015181600381106110bc57fe5b60200201516002600381106110cd57fe5b602002015160028111156110dd57fe5b826040015182600381106110ed57fe5b60200201516000600381106110fe57fe5b6020020151600281111561110e57fe5b145b8015611156575060028081111561112357fe5b8260400151826003811061113357fe5b602002015160006003811061114457fe5b6020020151600281111561115457fe5b145b156111705781602001516001819150935093505050611494565b8080600101915050610f0a565b5060008090505b60038110156113f757816040015160016003811061119e57fe5b602002015181600381106111ae57fe5b602002015160028111156111be57fe5b82604001516000600381106111cf57fe5b602002015182600381106111df57fe5b602002015160028111156111ef57fe5b14801561125b5750816040015160026003811061120857fe5b6020020151816003811061121857fe5b6020020151600281111561122857fe5b826040015160016003811061123957fe5b6020020151826003811061124957fe5b6020020151600281111561125957fe5b145b80156112a257506001600281111561126f57fe5b826040015160006003811061128057fe5b6020020151826003811061129057fe5b602002015160028111156112a057fe5b145b156112bc5781600001516001819150935093505050611494565b81604001516001600381106112cd57fe5b602002015181600381106112dd57fe5b602002015160028111156112ed57fe5b82604001516000600381106112fe57fe5b6020020151826003811061130e57fe5b6020020151600281111561131e57fe5b14801561138a5750816040015160026003811061133757fe5b6020020151816003811061134757fe5b6020020151600281111561135757fe5b826040015160006003811061136857fe5b6020020151826003811061137857fe5b6020020151600281111561138857fe5b145b80156113d0575060028081111561139d57fe5b82604001516000600381106113ae57fe5b602002015182600381106113be57fe5b602002015160028111156113ce57fe5b145b156113ea5781602001516001819150935093505050611494565b8080600101915050611184565b5060008090505b60038110156114865760008090505b6003811015611478576000600281111561142357fe5b8360400151836003811061143357fe5b6020020151826003811061144357fe5b6020020151600281111561145357fe5b141561146b5760008081915094509450505050611494565b808060010191505061140d565b5080806001019150506113fe565b506000600181915092509250505b915091565b6002600082815260200190815260200160002060090160009054906101000a900460ff166114c657600080fd5b60028060008381526020019081526020016000206007015411156115bb5760008090505b60038110156115745760008090505b600381101561156657600060026000858152602001908152602001600020600201836003811061152557fe5b01826003811061153157fe5b602091828204019190066101000a81548160ff0219169083600281111561155457fe5b021790555080806001019150506114f9565b5080806001019150506114ea565b5060026000828152602001908152602001600020600701600081548092919060010191905055506002806000838152602001908152602001600020600501819055506116ae565b60028060008381526020019081526020016000206007015411156116ad5760008090505b60038110156116695760008090505b600381101561165b57600060026000858152602001908152602001600020600201836003811061161a57fe5b01826003811061162657fe5b602091828204019190066101000a81548160ff0219169083600281111561164957fe5b021790555080806001019150506115ee565b5080806001019150506115df565b506002600082815260200190815260200160002060070160008154809291906001019190505550600160026000838152602001908152602001600020600501819055505b5b600460026000838152602001908152602001600020600701541061193e57600260008281526020019081526020016000206006016002815481106116ee57fe5b90600052602060002001546002600083815260200190815260200160002060060160018154811061171b57fe5b906000526020600020015411156117c4576002600082815260200190815260200160002060000160009054906101000a900473ffffffffffffffffffffffffffffffffffffffff1673ffffffffffffffffffffffffffffffffffffffff166108fc60026000848152602001908152602001600020600801549081150290604051600060405180830381858888f193505050501580156117be573d6000803e3d6000fd5b5061193d565b600260008281526020019081526020016000206006016002815481106117e657fe5b90600052602060002001546002600083815260200190815260200160002060060160018154811061181357fe5b906000526020600020015410156118bc576002600082815260200190815260200160002060010160009054906101000a900473ffffffffffffffffffffffffffffffffffffffff1673ffffffffffffffffffffffffffffffffffffffff166108fc60026000848152602001908152602001600020600801549081150290604051600060405180830381858888f193505050501580156118b6573d6000803e3d6000fd5b5061193c565b600160009054906101000a900473ffffffffffffffffffffffffffffffffffffffff1673ffffffffffffffffffffffffffffffffffffffff166108fc60026000848152602001908152602001600020600801549081150290604051600060405180830381858888f1935050505015801561193a573d6000803e3d6000fd5b505b5b5b50565b600060fb42604051602001808281526020019150506040516020818303038152906040528051906020012060001c8161197657fe5b06905090565b6040518061012001604052806003905b611994611ac7565b81526020019060019003908161198c5790505090565b604051806102200160405280600073ffffffffffffffffffffffffffffffffffffffff168152602001600073ffffffffffffffffffffffffffffffffffffffff1681526020016119f8611ae9565b8152602001600081526020016060815260200160008152602001600081526020016000151581526020016000151581525090565b8260038101928215611a69579160200282015b82811115611a6857825182906003611a58929190611b17565b5091602001919060010190611a3f565b5b509050611a769190611bb9565b5090565b828054828255906000526020600020908101928215611ab6579160200282015b82811115611ab5578251825591602001919060010190611a9a565b5b509050611ac39190611be5565b5090565b6040518060600160405280600390602082028038833980820191505090505090565b6040518061012001604052806003905b611b01611ac7565b815260200190600190039081611af95790505090565b826003601f01602090048101928215611ba85791602002820160005b83821115611b7957835183826101000a81548160ff02191690836002811115611b5857fe5b02179055509260200192600101602081600001049283019260010302611b33565b8015611ba65782816101000a81549060ff0219169055600101602081600001049283019260010302611b79565b505b509050611bb59190611c0a565b5090565b611be291905b80821115611bde5760008181611bd59190611c3a565b50600101611bbf565b5090565b90565b611c0791905b80821115611c03576000816000905550600101611beb565b5090565b90565b611c3791905b80821115611c3357600081816101000a81549060ff021916905550600101611c10565b5090565b90565b506000905556fea165627a7a7230582021b0d154e5f29c96e7abe72c08419eac590b22018733143de72392a3ef9a70300029",
  "source": "pragma solidity >=0.4.0 <0.7.0;\n\ncontract TicTacToe{\n    uint256 num;\n    enum Symbol{None, play1, play2}\n    address payable public owner;\n    \n    struct Game {\n        address payable player1;\n        address payable player2;\n        Symbol[3][3] board;\n        uint whichPlayerTurn;\n        uint[] winner;\n        uint ngames;\n        uint256 stake;\n        bool active;\n        bool isRandom;\n    }\n    \n    mapping(uint256 => Game) game;\n    \n    constructor() public{\n        owner = msg.sender;\n    }\n    \n    function random() private view returns (uint) {\n       return uint(uint256(keccak256(abi.encodePacked(block.timestamp)))%251);\n    }\n    function createGame(uint256 stake, bool randomPlayer) public payable returns (uint256){\n        require(stake == msg.value);\n        Game memory g;\n        num++;\n        g.player1 = msg.sender;\n        for(uint i=1;i<=2;i++){\n            g.winner[i] = 0;\n        }\n        for(uint i=0;i<3;i++){\n            for(uint j=0;j<3;j++){\n                g.board[i][j] = Symbol.None;\n            }\n        }\n        g.whichPlayerTurn = 1;\n        g.ngames = 0;\n        g.active = true;\n        g.stake = stake;\n        if(randomPlayer){\n            g.isRandom = false;\n        }else{\n            g.isRandom = true;\n        }\n        game[num] = g;\n        return num;\n    }\n    \n    function getBoard(uint256 gameId) public view returns (Symbol[3][3] memory) {\n        return game[gameId].board;\n    }\n    \n    \n    function joinGame(uint256 gameId, uint256 stake) public payable{\n        require(game[gameId].active);\n        require(stake == msg.value);\n        game[gameId].stake += stake;\n        game[gameId].player2 = msg.sender;\n    }\n    \n    function makeMove(uint256 gameId, uint i, uint j) public{\n        require(game[gameId].active);\n        require(\n            isValid(msg.sender, gameId),\n            \"Not your move\"\n        );\n        if(msg.sender == game[gameId].player1){\n            game[gameId].board[i][j] = Symbol.play1;\n        }else{\n            game[gameId].board[i][j] = Symbol.play2;\n        }\n        address retadd;bool retbool;\n        (retadd, retbool) = checkWinner(gameId); \n        if(retadd == game[gameId].player1 && retbool == true){\n            game[gameId].winner[1]++;\n            restartGame(gameId);\n            return;\n        }else if(retadd == game[gameId].player2 && retbool == true){\n            game[gameId].winner[2]++;\n            restartGame(gameId);\n            return;\n        }else if(retadd == address(0) && retbool == true){\n            restartGame(gameId);\n            return;\n        }\n        if(game[gameId].isRandom){\n            uint x;\n            uint y;\n            for(uint ii=0;ii<3;ii++){\n                for(uint jj=0;jj<3;jj++){\n                    if(game[gameId].board[i][j] == Symbol.None){\n                        x=i;y=j;\n                        if(random()%2 == 1){\n                            makeMove(gameId, i, j);\n                            return;\n                        }\n                    }\n                }\n            }\n            makeMove(gameId, x, y);\n            return;\n        }\n    }\n    \n    function checkWinner(uint256 gameId) private view returns (address , bool){\n        require(game[gameId].active);\n        Game memory g = game[gameId];\n        for(uint i=0;i<3;i++){\n            if(g.board[i][0] == g.board[i][1] && g.board[i][0] == g.board[i][2] && g.board[i][0] == Symbol.play1){\n                return (g.player1, true);            \n            }\n            if(g.board[i][0] == g.board[i][1] && g.board[i][0] == g.board[i][2] && g.board[i][0] == Symbol.play2){\n                return (g.player2, true);            \n            }\n        }\n        for(uint i=0;i<3;i++){\n            if(g.board[0][i] == g.board[1][i] && g.board[1][i] == g.board[2][i] && g.board[0][i] == Symbol.play1){\n                return (g.player1, true);            \n            }\n            if(g.board[0][i] == g.board[1][i] && g.board[0][i] == g.board[2][i] && g.board[0][i] == Symbol.play2){\n                return (g.player2, true);            \n            }\n        }\n        for(uint i=0;i<3;i++){\n            for(uint j=0;j<3;j++){\n                if(g.board[i][j] == Symbol.None){\n                    return (address(0), false);\n                }\n            }\n        }\n        return (address(0), true);\n    }\n    \n    function restartGame(uint256 gameId) private{\n        require(game[gameId].active);\n        if(game[gameId].ngames > 2){\n            for(uint i=0;i<3;i++){\n                for(uint j=0;j<3;j++){\n                    game[gameId].board[i][j] = Symbol.None;\n                }\n            }\n            game[gameId].ngames++;\n            game[gameId].whichPlayerTurn = 2;\n        }else if(game[gameId].ngames > 2){\n            for(uint i=0;i<3;i++){\n                for(uint j=0;j<3;j++){\n                    game[gameId].board[i][j] = Symbol.None;\n                }\n            }\n            game[gameId].ngames++;\n            game[gameId].whichPlayerTurn = 1;\n        }\n        if(game[gameId].ngames >= 4){\n            if(game[gameId].winner[1] > game[gameId].winner[2]){\n                address(game[gameId].player1).transfer(game[gameId].stake);\n            }else if(game[gameId].winner[1] < game[gameId].winner[2]){\n                address(game[gameId].player2).transfer(game[gameId].stake);\n            }else{\n                address(owner).transfer(game[gameId].stake);\n            }\n        }\n    }\n    \n    function isValid(address ad, uint256 gameId) private view returns (bool){\n        require(game[gameId].active);\n        if(ad == game[gameId].player1 && game[gameId].whichPlayerTurn == 1){\n            return true;\n        }\n        if(ad == game[gameId].player2 && game[gameId].whichPlayerTurn == 2){\n            return true;\n        }\n        return false;\n    }\n       \n    \n\n    \n}\n",
  "sourcePath": "/home/jashwanth/2k19-2/Blockchain/TicTacToe/contracts/TicTacToe.sol",
  "compiler": {
    "name": "solc",
    "version": "0.5.8+commit.23d335f2.Emscripten.clang"
  },
  "schemaVersion": "3.0.15",
  "updatedAt": "2019-09-14T22:18:42.853Z",
  "devdoc": {
    "methods": {}
  },
  "userdoc": {
    "methods": {}
  }
}